:03000000020EE409
:0C0EE400787FE4F6D8FD7581490209F220
:0A0EF000D2B400C2B500C2B4002263
:0A0EFA00C2B500D2B400D2B5002248
:0E0EBA0000D2B400A2B5920700C2B400A20795
:010EC8002207
:100E2D00E4FEEF3392B5EF25E0FF120EBA0EBE08C9
:070E3D00F1D2B5120EBAB3A9
:010E4400228B
:100DA500AE07AC03120EF0120E2D5014AF05120E45
:100DB5002D5012AF04120E2D500B120EFA7F012288
:060DC500120EFA7F00226D
:100B210000003F0000215B004F0066006D007D006A
:100B310007007F006F0077007C00390079007100A9
:100B4100B602730001213E003012801A402140009C
:100B5100008038000921B608849CA4C4191A1B021C
:100B6100191A1B03191A1B041013120E00010F0F7F
:0D0B7100FF0B5DFF0B61FF0B6580888A8D17
:100E4500E4FEC294EF139293EFC313FFD2940EBE48
:040E550008F0D2933C
:010E59002276
:100A5C00E531C4540FF53AE5331313540C253AF52C
:100A6C003AE5355430253AF53AE53725E025E0549A
:100A7C00C0253AF53AE539C4540FF53BC2957F02CF
:100A8C00120E45D2950000C2957F40120E45D295AC
:100A9C000000C2957FC0120E45E4FD74302DF8E6BF
:100AAC00FF120E450DBD0CF3D2950000C295AF2E72
:050ABC00120E45D29569
:010AC1002212
:10097F00BF641F900B25E493F532740193F5339008
:10098F000B23E493FE7401938E34F5358E36F537D1
:10099F008040900B21E493F532740193F533EF759A
:1009AF00F00A8425E02423F582E4340BF583E493E5
:1009BF00F534740193F535EF75F00A84E5F025E011
:1009CF002423F582E4340BF583E493F53674019315
:1009DF00F537E528900B5993F538E523B406035303
:0309EF00387F222C
:060C73008B148A1589169E
:100C7900E4FFAB14AA15A9168F8275830012089197
:100C890025E02421F582E4340BF583E493FC740117
:100C990093FDEF25E02430F8A60408A6050FBF044C
:100CA900D1E528900B5993F538E523B40603533859
:010CB9007FBB
:010CBA002217
:100538008B118A128913E52C900B7A93F52E900073
:100548000412089114601F14605D14606314700332
:100558000205E514700302063C24056003020677D1
:10056800752E80020A5CE52B75F003A42471F582D0
:10057800E4340BF583E493FB740193FA740293F962
:10058800120C73E52D60030206772000030206773C
:100598007BFF7A0B7969120C73AB11AA12A913901D
:1005A800000474020206717BFF7A0B7969020C73EE
:1005B800900B49E493F530740193F531AF26120995
:1005C8007FE52D6003020677AB11AA12A9139000EC
:1005D80004300004740280027401020671900B3921
:1005E800E493F530740193F531E523C39406500E76
:1005F800C374069523FF12097F900B4F8015E523DE
:1006080024FAFF12097FE523B40605900B21800325
:10061800900B4DE493F534740193F535E52D704F47
:10062800AB11AA12A91390000430000474028002CE
:1006380074018035900B45E493F530740193F531DE
:1006480020030B7BFF7A0B796D120C738005AF3D8D
:1006580012097FE52D7018AB11AA12A91390000496
:100668003000047402800274011208D0E4F52D22CF
:03000300020006F2
:0100060032C7
:03001300020EAA30
:100EAA0020010CD201758AAD758CFFD28CD2A93281
:03001B00020AC214
:040AC200C0E0C0D000
:100AC600053EE53EC39421404D753E00D202E52A1F
:100AD60045296008E52A152A70021529E52D6002C8
:100AE600152DE53C6002153CE52F6002152FE53D0E
:100AF600D39400401B0540E5407002053FD394B8EF
:100B0600E53F940B4010753F00754000153D80068B
:060B1600753F0075400070
:050B1C00D0D0D0E03252
:03000B000203DD10
:1003DD00C0E0C0F0C083C082C0D075D000C000C0E6
:0703ED0004C005C006C007B3
:1003F400C28C0541E542146051146071147003020B
:1004040004B31470030204F42404600302051820E6
:10041400B30975410075420102051BE5444543607B
:100424000BE54415447002154302051B7527003083
:1004340006117549007548007547007546007545F5
:1004440000C206C2A9C20102051BE541D3941440AF
:100454000302051820B30302051BE541C3940C50A5
:100464000302051875410075420202051BE541D3DC
:100474009414400302051830B30302051BE541D36D
:10048400940C500302051B20061A754203754100A3
:100494007549007548007547007546007545007537
:1004A400270080737542007543017544B08068E588
:1004B40041D3940A4002805C20B35CE541D39402AA
:1004C4004055E541940740020549AF49AE48AD4760
:1004D400AC4678011208F28F498E488D478C460548
:1004E40045E545C3942040037542047541008027C7
:1004F400E541D394104020E549B41816E548B418F2
:1005040011E546F4B5470B8547277543017544B09B
:0F051400D2068000754200758AAD758CFFD28CBF
:10052300D007D006D005D004D000D0D0D082D0835D
:05053300D0F0D0E03221
:10073300108090A0B0C0D00F808890988890988F38
:10074300108090A0B0C0D01FA018108090A0B01748
:1007530000879099A0A8AFB2B5B8BBBEC0C2C4C74A
:10076300C9CBCDD0D2D3D5D6D8D9DBDCDEDFE1E21D
:10077300E3E4E5E6E8E9EAEBECEDEEEEEFF0F1F1C8
:10078300F2F3F4F4F4F5F5F5F6F6F7F7F7F8F8F80D
:10079300F9F9FAFAFAFBFBFBFBFCFCFCFCFDFDFDA3
:1007A300FDFDFEFEFEFEFEFEFEFFFFFFFFFFFFFF61
:1007B300FFFFFFFFFF00050A0F1E2D3C5A00805963
:1007C300855A60787F8182838486888789000309BC
:1007D3000408080808050506060707070A070308AB
:0207E30005050A
:100CBB0075B280E4F5B1D2B7759201759102C2900D
:100CCB00D288C2A8D28AD2AA758901758AAD758CD1
:100CDB00FFC28CD2A974202589F589758B36758D49
:100CEB0036D28ED2ABE4F598F58775B802D2AF2227
:100E5A00E4F5C38FC475C78575C50175C65A75C6CD
:050E6A00A500AFC2224B
:100E8400E4F5C3F5C475C78575C50375C65A75C63B
:030E9400A5002294
:100E6F008DC2E4F5C38FC475C78575C50275C65AA3
:050E7F0075C6A500226C
:0D0ED700E4F5C7F5C5F5C675C380F5C42266
:100B7E00E4FF120E5A8F2B7F01120E5A8F267F0220
:100B8E00120E5A8F237F03120E5A8F2C7F04120ED1
:100B9E005A8F28E52BC394034003E4F52BE526D3A7
:100BAE009464400375261EE523D3940C40037523ED
:100BBE0006E52CD394035007E52CC394015003751E
:0D0BCE002C01E528C394044003E4F528221F
:100DEE00120E84AD2BE4FF120E6FAD260F120E6F96
:100DFE00AD230F120E6FAD2C0F120E6FAD280F021A
:020E0E000E6F65
:100E9700EF24FF92B7752F0AE52F7003D38001C3A4
:030EA70050F622E0
:0A067800900002120891FF120D2AF3
:10068200E526D3944840087517087518078005E4D5
:10069200F517F518E5267003FB8032E528B4030F41
:1006A200E52690075393C3951724E8FBE4801EE5E3
:1006B20028700DE52690075393C3951724EC800B01
:1006C200E52690075393C3951724EEFBE4FD7F8242
:1006D200120DA5AB2B7D017F82120DA5E523C3135D
:1006E200FFE52875F008A42433F582E43407F58386
:1006F200E5822FF582E43583F583E4932518FB7DAB
:10070200027F82120DA5E52875F008A4243AF5822D
:10071200E43407F583E493FB7D037F82120DA5E5A4
:1007220023540425E025E02494FB7D047F82020DFE
:01073200A521
:070C2A00900002120891FF87
:100C3100EF24F4601514601D14602724FE702E0546
:100C41002BE52BC3940340258006E52B7002FF2280
:100C5100E4F52B8018E52BB402037F0022752B02EB
:100C6100800BE52BB401037F0022752B01D2057F98
:020C710001225E
:100D2A00EF24F7601924F66007146012240C701976
:100D3A00C200E526C3946450100526D20522E52692
:0A0D4A00D3940040041526D20522C0
:070D7E00900002120891FF32
:100D8500EF24F5600F047017E523C3940C5010058C
:100D950023D20522E523D3940040041523D205224E
:070BDB00900002120891FFD7
:100BE200EF24FC601814602914601B14602E24F595
:100BF20070330528E528C39404402A8004E5286060
:100C020026E4F528801FE5286402601B752802800F
:100C120014E528640160107528018009E528640341
:080C22006005752803D20522CC
:100DCB00200307D2037521018010E521C39407503E
:100DDB000405218005C203E4F521E5219007B893B2
:020DEB00F53DD4
:010DED0022E3
:1007E500900001120891700302087724FE603C1402
:1007F500606A24027075752900752A19E52A45294C
:100805007003D38001C350F4C290752900752A0A7C
:10081500E52A45297003D38001C350F4900004E410
:100825001208D0E4F52D9000018044D290C20075E5
:100835002900752A0AE52A45297003D38001C3508A
:10084500F490000474011208D0E4F52D9000031211
:1008550008911208BE900001740180139000017484
:10086500021208D090000374018004900001E41284
:0308750008D02286
:10001E008B148A158916900001120891B40C0040B9
:10002E000302020F900039F82828730200660200BE
:10003E005D0200A00200BD0200D902015502017F3F
:10004E000201140201C50201AB0201E60200BD75F8
:10005E002975752A300201BF309119200016AB1494
:10006E00AA15A91690000174021208D0900003740C
:10007E0003020219E52A4529600302021CAB14AAE9
:10008E0015A91690000174021208D0900003E40224
:10009E000219AB14AA15A9169000031208911208A2
:1000AE00BEAB14AA15A9169000017401020219C262
:1000BE0000C203E4F53DAB14AA15A9169000017415
:1000CE00021208D0900003E402021930000FC200A1
:1000DE00AB14AA15A9169000047401800DD200ABC2
:1000EE0014AA15A91690000474021208D0E4F52D76
:1000FE00AB14AA15A91690000174021208D0900034
:10010E00037401020219AB14AA15A916120C2AEFD8
:10011E006003120682AB14AA15A91690000474018E
:10012E003000081208D0752D3280061208D0E4F582
:10013E002DAB14AA15A91690000174021208D090C6
:10014E0000037401020219AB14AA15A9161206783F
:10015E00AB14AA15A91690000474031208D0752DBD
:10016E003290000174021208D09000037401020252
:10017E0019AB14AA15A916120D7E120682AB14AA7B
:10018E0015A91690000474041208D0752D32900033
:10019E000174021208D09000037401806E152CE5D4
:1001AE002CC394015003752C03D205AB14AA15A9C8
:1001BE0016900001E48054AB14AA15A916120BDB9D
:1001CE00120682AB14AA15A9169000017402120829
:1001DE00D090000374018033AB14AA15A9169000B9
:1001EE0004120891B40503120DCBAB14AA15A9166F
:1001FE0090000474051208D0752D96900001E480CD
:0F020E000AAB14AA15A916900001E41208D02219
:10021D008B148A158916900001120891B40C0040B8
:10022D00030203CF900238F828287302026D0202F0
:10023D005C0202880202AA0202C5020330020351C7
:10024D000202E802038E0203740203A60202AAE46C
:10025D00FF120E97120682752900752AFA02038283
:10026D00309107752900752AFA22E52A4529600380
:10027D000203DCAB14AA15A91680507F01120E974C
:10028D00120682AB14AA15A916900003120891123A
:10029D0008BEAB14AA15A9169000018039C200C280
:1002AD0003E4F53DAB14AA15A916900001740212D2
:1002BD0008D090000302034DD200AB14AA15A91665
:1002CD0090000474021208D0E4F52D900001740220
:1002DD001208D090000374010203D9AB14AA15A91A
:1002ED0016120C2AEF601D7F01120E97120682ABBB
:1002FD0014AA15A91690000174021208D0900003DB
:10030D007401800AAB14AA15A916900001E4120815
:10031D00D0AB14AA15A91690000474011208D0E4EC
:10032D00F52D22AB14AA15A916120678AB14AA1531
:10033D00A91690000474031208D0752D3290000197
:10034D00E40203D9AB14AA15A916120D7E1206826A
:10035D00AB14AA15A91690000474041208D0752DBB
:10036D0032900001E48065152CE52CC394015003F7
:10037D00752C03D205AB14AA15A916900001E480C3
:10038D004BAB14AA15A916120BDB120682AB14AADD
:10039D0015A916900001E48033AB14AA15A9169087
:1003AD000004120891B40503120DCBAB14AA15A9C4
:1003BD001690000474051208D0752D96900001E476
:1003CD00800AAB14AA15A916900001E41208D022D8
:100D54008B118A12891312087814600B24FE601018
:100D6400240370150207E5AB11AA12A91302001E91
:0A0D7400AB11AA12A91312021D22EE
:0D0EC9007F0FEF9007C093B5270122DFF5E2
:010ED60022F9
:100CFB00E4FF2092027F1020B2027F112092052088
:100D0B00B2027F12EF700AC2920020B2027F13D29E
:0E0D1B0092EF700AC2B2002092027F14D2B290
:010D290022A7
:100E1000120EC9900002EF1208D090000212089141
:0D0E2000700A120CFB900002EF1208D022A5
:060906008B118A12891317
:10090C00C2049000011208917068900002120891C4
:10091C00FFB52224EF24F824FC500724F8600304CC
:10092C007031E53C700E753C05EF9007D09390004C
:10093C00011208D0D204801BAB11AA12A91390008B
:10094C0002120891F5229007D0939000011208D062
:10095C00753C14AB11AA12A91390000112089170E6
:10096C001130030EE53D700AC203900001740B12A6
:02097C0008D0A1
:01097E002256
:1009F200120CBBE4F508F509F50D750E00750F082C
:100A020075261EF528752C01752303C203120B7E71
:100A1200AB0DAA0EA90F120906AB0DAA0EA90F1251
:100A22000D54AB0DAA0EA90F1205383002E2C20214
:100A3200120A5CAB0DAA0EA90F120E103005D1E5F9
:100A420010D3943240102004C7E4F510C205120DF1
:0A0A5200EE120ED780BA051080B630
:10087800BB010689828A83E0225002E722BBFE027E
:09088800E32289828A83E49322B1
:10089100BB010CE58229F582E5833AF583E022501C
:1008A10006E92582F8E622BBFE06E92582F8E22266
:0D08B100E58229F582E5833AF583E4932280
:1008BE00BB010689828A83F0225002F722BBFE0119
:0208CE00F32213
:1008D000F8BB010DE58229F582E5833AF583E8F05E
:1008E000225006E92582C8F622BBFE05E92582C80A
:0208F000F222F2
:1008F200EF08800CA2E0CC13CCCD13CDCE13CE13D7
:04090200D8F2FF2206
:00000001FF
