:03000000020ECD20
:0C0ECD00787FE4F6D8FD7581490209D851
:0A0ED900D2B400C2B500C2B400227A
:0A0EE300C2B500D2B400D2B500225F
:0E0EA30000D2B400A2B5920700C2B400A207AC
:010EB100221E
:100E1600E4FEEF3392B5EF25E0FF120EA30EBE08F7
:070E2600F1D2B5120EA3B3D7
:010E2D0022A2
:100D8E00AE07AC03120ED9120E165014AF05120E8A
:100D9E00165012AF04120E16500B120EE37F0122E4
:060DAE00120EE37F00229B
:100B070000003F0000215B004F0066006D007D0084
:100B170007007F006F0077007C00390079007100C3
:100B2700B602730001213E003012801A40214000B6
:100B3700008038000921B608001020400012140078
:100B47000B131500101104001013120E00010F0FE4
:0D0B5700FF0B43FF0B47FF0B4B80888A8D7F
:100E2E00E4FEC294EF139293EFC313FFD2940EBE5F
:040E3E0008F0D29353
:010E4200228D
:100A4200E531C4540FF53AE5331313540C253AF546
:100A52003AE5355430253AF53AE53725E025E054B4
:100A6200C0253AF53AE539C4540FF53BC2957F02E9
:100A7200120E2ED2950000C2957F40120E2ED295F4
:100A82000000C2957FC0120E2EE4FD74302DF8E6F0
:100A9200FF120E2E0DBD0CF3D2950000C295AF2EA3
:050AA200120E2ED2959A
:010AA700222C
:10096400BF641F900B0BE493F532740193F533903D
:100974000B09E493FE7401938E34F5358E36F53706
:100984008040900B07E493F532740193F533EF75CF
:10099400F00A8425E02409F582E4340BF583E4931A
:1009A400F534740193F535EF75F00A84E5F025E02C
:1009B4002409F582E4340BF583E493F5367401934A
:1009C400F537E528900B3F93F538E523640660037B
:0409D4004338802202
:060C10008B148A15891601
:100C1600E4FFAB14AA15A9168F827583001207F696
:100C260025E02407F582E4340BF583E493FC740194
:100C360093FDEF25E02430F8A60408A6050FBF04AF
:100C4600D1E528900B3F93F538E52364066003430E
:020C56003880E4
:010C58002279
:10053C008B118A128913E52C900B6093F52E900089
:10054C00041207F614601F14605D146063147003CA
:10055C000205E91470030206402405600302067BC1
:10056C00752E80020A42E52B75F003A42457F58200
:10057C00E4340BF583E493FB740193FA740293F95E
:10058C00120C10E52D600302067B20000302067B93
:10059C007BFF7A0B794F120C10AB11AA12A9139096
:1005AC00000474020206757BFF7A0B794F020C1063
:1005BC00900B2FE493F530740193F531AF261209AB
:1005CC0064E52D600302067BAB11AA12A9139000FF
:1005DC0004300004740280027401020675900B1F33
:1005EC00E493F530740193F531E523C39406500E72
:1005FC00C374069523FF120964900B358015E5230F
:10060C0024FAFF120964E523B40605900B07800356
:10061C00900B33E493F534740193F535E52D704F5D
:10062C00AB11AA12A91390000430000474028002CA
:10063C0074018035900B2BE493F530740193F531F4
:10064C0020030B7BFF7A0B7953120C108005AF3D06
:10065C00120964E52D7018AB11AA12A913900004AD
:10066C00300004740280027401120835E4F52D2266
:03000300020006F2
:0100060032C7
:03001300020E9347
:100E930020010CD201758AAD758CFFD28CD2A93298
:03001B00020AA82E
:040AA800C0E0C0D01A
:100AAC00053EE53EC39421404D753E00D202E52A39
:100ABC0045296008E52A152A70021529E52D6002E2
:100ACC00152DE53C6002153CE52F6002152FE53D28
:100ADC00D39400401B0540E5407002053FD394B809
:100AEC00E53F940B4010753F00754000153D8006A6
:060AFC00753F007540008B
:050B0200D0D0D0E0326C
:03000B000203DD10
:1003DD00C0E0C0F0C083C082C0D075D000C000C0E6
:0703ED0004C005C006C007B3
:1003F400C28C0541E542146051146071147003020B
:1004040004B71470030204F82404600302051C20DA
:10041400B30975410075420102051FE54445436077
:100424000BE54415447002154302051F752700307F
:1004340006117549007548007547007546007545F5
:1004440000C206C2A9C20102051FE541D3942F4090
:100454000302051C20B30302051FE541C3941B508E
:100464000302051C75410075420202051FE541D3D4
:100474009414400302051C30B30302051FE541D365
:10048400940C401A75420375410075490075480083
:10049400754700754600754500752700807D7542D7
:1004A40000E541C3940740733006707543017544F9
:1004B400B08068E541D3940A4002805C20B35CE5D7
:1004C40041D394024055E541940740020549AF49A0
:1004D400AE48AD47AC4678011208578F498E488D17
:1004E400478C460545E545C3942040037542047591
:1004F40041008027E541D394104020E549B4081613
:10050400E548B4F511E546F4B5470B85472775432F
:10051400017544B0D2068000754200758AAD758CB1
:03052400FFD28C77
:10052700D007D006D005D004D000D0D0D082D08359
:05053700D0F0D0E0321D
:10067C0018100880889098A0A8B0B8C0C804A680AC
:10068C00889098A0A8B0B8C0C8D0D8E004AA181018
:10069C000880889098A0A8B0B8C0C804A848403872
:1006AC003028201810088088909834A600879099DC
:1006BC00A0A8AFB2B5B8BBBEC0C2C4C7C9CBCDD061
:1006CC00D2D3D5D6D8D9DBDCDEDFE1E2E3E4E5E654
:1006DC00E8E9EAEBECEDEEEEEFF0F1F1F2F3F4F425
:1006EC00F4F5F5F5F6F6F7F7F7F8F8F8F9F9FAFA8C
:1006FC00FAFBFBFBFBFCFCFCFCFDFDFDFDFDFEFE2B
:10070C00FEFEFEFEFEFFFFFFFFFFFFFFFFFFFFFFF2
:10071C00FF00050A0F1E2D3C5A00010D0A031F2F66
:10072C003D1114131215161E0E00030904080808B7
:0E073C0008050506060707070A070308050556
:100CA20075B280E4F5B1D2B7759241759102C290E6
:100CB200C296D288C2A8D28AD2AA758901758AAD93
:100CC200758CFFC28CD2A974202589F589758B3663
:100CD200758D36D28ED2ABE4F598F58775B802D20F
:020CE200AF223F
:100E4300E4F5C38FC475C78575C50175C65A75C6E4
:050E5300A500AFC22262
:100E6D00E4F5C3F5C475C78575C50375C65A75C652
:030E7D00A50022AB
:100E58008DC2E4F5C38FC475C78575C50275C65ABA
:050E680075C6A5002283
:0D0EC000E4F5C7F5C5F5C675C380F5C4227D
:100B6400E4FF120E438F2B7F01120E438F267F0268
:100B7400120E438F237F03120E438F2C7F04120E19
:100B8400438F28E52BC394034003E4F52BE526D3D8
:100B94009464400375261EE523D3940C4003752307
:100BA40006E52CD394035007E52CC3940150037538
:0D0BB4002C01E528C394044003E4F5282239
:100DD700120E6DAD2BE4FF120E58AD260F120E58F2
:100DE700AD230F120E58AD2C0F120E58AD280F025F
:020DF7000E5894
:100E8000EF24FF92B7752F0AE52F7003D38001C3BB
:030E900050F622F7
:0A086B009000021207F6FF120D13B1
:10087500E5267003FB800AE5269006B89324E4FB81
:10088500E4FD7F82120D8EAB2B7D017F82120D8ED2
:10089500E52875F00FA4247CF582E43406F583E59C
:1008A500822523F582E43583F583E493FB7D027F7E
:1008B50082120D8EE52875F00FA42489F582E434A3
:1008C50006F583E493FB7D037F82120D8EE5287583
:1008D500F00FA4248AF582E43406F583E493FB7DC6
:0608E500047F82020D8E6B
:070C59009000021207F6FFF4
:100C6000EF24F4601514601D14602724FE702E0517
:100C70002BE52BC3940340258006E52B7002FF2251
:100C8000E4F52B8018E52BB402037F0022752B02BC
:100C9000800BE52BB401037F0022752B01D2057F69
:020CA00001222F
:100D1300EF24F7601924F66007146012240C70198D
:100D2300C200E526C3946450100526D20522E526A9
:0A0D3300D3940040041526D20522D7
:070D67009000021207F6FFE5
:100D6E00EF24F5600F047017E523C3940C501005A3
:100D7E0023D20522E523D3940040041523D2052265
:070BC1009000021207F6FF8D
:100BC800EF24FC601814602914601B14602E24F5AF
:100BD80070330528E528C39404402A8004E528607A
:100BE80026E4F528801FE5286402601B752802802A
:100BF80014E528640160107528018009E52864035C
:080C08006005752803D20522E6
:100DB400200307D2037521018010E521C394075055
:100DC4000405218005C203E4F521E52190071D9364
:020DD400F53DEB
:010DD60022FA
:10074A009000011207F670030207DC24FE603C14D5
:10075A00606A24027075752900752A19E52A4529E7
:10076A007003D38001C350F4C290752900752A0A18
:10077A00E52A45297003D38001C350F4900004E4AC
:10078A00120835E4F52D9000018044D290C200751C
:10079A002900752A0AE52A45297003D38001C35026
:1007AA00F49000047401120835E4F52D9000031248
:1007BA0007F6120823900001740180139000017457
:1007CA000212083590000374018004900001E412BB
:0307DA00083522BD
:10001E008B148A1589169000011207F6B40C004055
:10002E000302020F900039F82828730200660200BE
:10003E005D0200A00200BD0200D902015502017F3F
:10004E000201140201C50201AB0201E60200BD75F8
:10005E002975752A300201BF309119200016AB1494
:10006E00AA15A916900001740212083590000374A7
:10007E0003020219E52A4529600302021CAB14AAE9
:10008E0015A9169000017402120835900003E402BF
:10009E000219AB14AA15A9169000031207F612083E
:1000AE0023AB14AA15A9169000017401020219C2FD
:1000BE0000C203E4F53DAB14AA15A9169000017415
:1000CE0002120835900003E402021930000FC2003C
:1000DE00AB14AA15A9169000047401800DD200ABC2
:1000EE0014AA15A9169000047402120835E4F52D11
:1000FE00AB14AA15A91690000174021208359000CF
:10010E00037401020219AB14AA15A916120C59EFA9
:10011E006003120875AB14AA15A916900004740199
:10012E00300008120835752D328006120835E4F5B8
:10013E002DAB14AA15A91690000174021208359061
:10014E0000037401020219AB14AA15A91612086B4A
:10015E00AB14AA15A9169000047403120835752D58
:10016E0032900001740212083590000374010202ED
:10017E0019AB14AA15A916120D67120875AB14AA9D
:10018E0015A9169000047404120835752D329000CE
:10019E000174021208359000037401806E152CE56F
:1001AE002CC394015003752C03D205AB14AA15A9C8
:1001BE0016900001E48054AB14AA15A916120BC1B7
:1001CE00120875AB14AA15A9169000017402120834
:1001DE003590000374018033AB14AA15A916900054
:1001EE00041207F6B40503120DB4AB14AA15A91622
:1001FE009000047405120835752D96900001E48068
:0F020E000AAB14AA15A916900001E412083522B4
:10021D008B148A1589169000011207F6B40C004054
:10022D00030203CF900238F828287302026D0202F0
:10023D005C0202880202AA0202C5020330020351C7
:10024D000202E802038E0203740203A60202AAE46C
:10025D00FF120E80120875752900752AFA020382A5
:10026D00309107752900752AFA22E52A4529600380
:10027D000203DCAB14AA15A91680507F01120E8063
:10028D00120875AB14AA15A9169000031207F612E1
:10029D000823AB14AA15A9169000018039C200C21B
:1002AD0003E4F53DAB14AA15A916900001740212D2
:1002BD00083590000302034DD200AB14AA15A91600
:1002CD009000047402120835E4F52D9000017402BB
:1002DD0012083590000374010203D9AB14AA15A9B5
:1002ED0016120C59EF601D7F01120E80120875ABAE
:1002FD0014AA15A916900001740212083590000376
:10030D007401800AAB14AA15A916900001E4120815
:10031D0035AB14AA15A9169000047401120835E422
:10032D00F52D22AB14AA15A91612086BAB14AA153C
:10033D00A9169000047403120835752D3290000132
:10034D00E40203D9AB14AA15A916120D671208758C
:10035D00AB14AA15A9169000047404120835752D56
:10036D0032900001E48065152CE52CC394015003F7
:10037D00752C03D205AB14AA15A916900001E480C3
:10038D004BAB14AA15A916120BC1120875AB14AA02
:10039D0015A916900001E48033AB14AA15A9169087
:1003AD0000041207F6B40503120DB4AB14AA15A977
:1003BD00169000047405120835752D96900001E411
:1003CD00800AAB14AA15A916900001E41208352273
:100D3D008B118A1289131207DD14600B24FE6010CB
:100D4D002403701502074AAB11AA12A91302001E43
:0A0D5D00AB11AA12A91312021D2205
:0D0EB2007F0FEF90072593B5270122DFF594
:010EBF002210
:100CE400E4FF2092027F1020B2027F11209205209F
:100CF400B2027F12EF700AC2920020B2027F13D2B6
:0E0D040092EF700AC2B2002092027F14D2B2A7
:010D120022BE
:100DF900120EB2900002EF1208359000021207F6A7
:0D0E0900700A120CE4900002EF120835226E
:0608EB008B118A12891333
:1008F100C2049000011207F670689000021207F618
:10090100FFB52224EF24F824FC500724F8600304E7
:100911007031E53C700E753C05EF90073593900002
:1009210001120835D204801BAB11AA12A913900041
:10093100021207F6F522900735939000011208354F
:10094100753C14AB11AA12A9139000011207F6709D
:100951001130030EE53D700AC203900001740B12C1
:02096100083557
:010963002271
:1009D800120CA2E4F508F509F50D750E00750F085F
:1009E80075261EF528752C01752303C203120B64A6
:1009F800AB0DAA0EA90F1208EBAB0DAA0EA90F1288
:100A08000D3DAB0DAA0EA90F12053C3002E2C20241
:100A1800120A42AB0DAA0EA90F120DF93005D1E545
:100A280010D3943240102004C7E4F510C205120D0B
:0A0A3800D7120EC080BA051080B678
:1007DD00BB010689828A83E0225002E722BBFE021A
:0907ED00E32289828A83E493224D
:1007F600BB010CE58229F582E5833AF583E02250B8
:1008060006E92582F8E622BBFE06E92582F8E22201
:0D081600E58229F582E5833AF583E493221B
:10082300BB010689828A83F0225002F722BBFE01B4
:02083300F322AE
:10083500F8BB010DE58229F582E5833AF583E8F0F9
:10084500225006E92582C8F622BBFE05E92582C8A5
:02085500F2228D
:10085700EF08800CA2E0CC13CCCD13CDCE13CE1372
:04086700D8F2FF22A2
:00000001FF
