:03000000020EC528
:0C0EC500787FE4F6D8FD7581490209D35E
:0A0ED100D2B400C2B500C2B4002282
:0A0EDB00C2B500D2B400D2B5002267
:0E0E9B0000D2B400A2B5920700C2B400A207B4
:010EA9002226
:100E0E00E4FEEF3392B5EF25E0FF120E9B0EBE0807
:070E1E00F1D2B5120E9BB3E7
:010E250022AA
:100D8600AE07AC03120ED1120E0E5014AF05120EA2
:100D96000E5012AF04120E0E500B120EDB7F012204
:060DA600120EDB7F0022AB
:100B020000003F0000215B004F0066006D007D0089
:100B120007007F006F0077007C00390079007100C8
:100B2200B602730001213E003012801A40214000BB
:100B3200008038000921B608849CA4C4191A1B023B
:100B4200191A1B03191A1B041013120E00010F0F9E
:0D0B5200FF0B3EFF0B42FF0B4680888A8D93
:100E2600E4FEC294EF139293EFC313FFD2940EBE67
:040E360008F0D2935B
:010E3A002295
:100A3D00E531C4540FF53AE5331313540C253AF54B
:100A4D003AE5355430253AF53AE53725E025E054B9
:100A5D00C0253AF53AE539C4540FF53BC2957F02EE
:100A6D00120E26D2950000C2957F40120E26D29509
:100A7D000000C2957FC0120E26E4FD74302DF8E6FD
:100A8D00FF120E260DBD0CF3D2950000C295AF2EB0
:050A9D00120E26D295A7
:010AA2002231
:10096000BF641F900B06E493F532740193F5339046
:100970000B04E493FE7401938E34F5358E36F5370F
:100980008040900B02E493F532740193F533EF75D8
:10099000F00A8425E02404F582E4340BF583E49323
:1009A000F534740193F535EF75F00A84E5F025E030
:1009B0002404F582E4340BF583E493F53674019353
:1009C000F537E528900B3A93F538E523B406035341
:0309D000387F224B
:060C54008B148A158916BD
:100C5A00E4FFAB14AA15A9168F82758300120872D5
:100C6A0025E02402F582E4340BF583E493FC740155
:100C7A0093FDEF25E02430F8A60408A6050FBF046B
:100C8A00D1E528900B3A93F538E523B40603533897
:010C9A007FDA
:010C9B002236
:100538008B118A128913E52C900B5B93F52E900092
:100548000412087214601F14605D14606314700351
:100558000205E514700302063C24056003020677D1
:10056800752E80020A3DE52B75F003A42452F5820E
:10057800E4340BF583E493FB740193FA740293F962
:10058800120C54E52D60030206772000030206775B
:100598007BFF7A0B794A120C54AB11AA12A913905B
:1005A800000474020206717BFF7A0B794A020C542C
:1005B800900B2AE493F530740193F531AF261209B4
:1005C80060E52D6003020677AB11AA12A91390000B
:1005D80004300004740280027401020671900B1A40
:1005E800E493F530740193F531E523C39406500E76
:1005F800C374069523FF120960900B308015E5231C
:1006080024FAFF120960E523B40605900B02800363
:10061800900B2EE493F534740193F535E52D704F66
:10062800AB11AA12A91390000430000474028002CE
:1006380074018035900B26E493F530740193F531FD
:1006480020030B7BFF7A0B794E120C548005AF3DCB
:10065800120960E52D7018AB11AA12A913900004B5
:100668003000047402800274011208B1E4F52D22EE
:03000300020006F2
:0100060032C7
:03001300020E8B4F
:100E8B0020010CD201758AAD758CFFD28CD2A932A0
:03001B00020AA333
:040AA300C0E0C0D01F
:100AA700053EE53EC39421404D753E00D202E52A3E
:100AB70045296008E52A152A70021529E52D6002E7
:100AC700152DE53C6002153CE52F6002152FE53D2D
:100AD700D39400401B0540E5407002053FD394B80E
:100AE700E53F940B4010753F00754000153D8006AB
:060AF700753F0075400090
:050AFD00D0D0D0E03272
:03000B000203DD10
:1003DD00C0E0C0F0C083C082C0D075D000C000C0E6
:0703ED0004C005C006C007B3
:1003F400C28C0541E542146051146071147003020B
:1004040004B31470030204F42404600302051820E6
:10041400B30975410075420102051BE5444543607B
:100424000BE54415447002154302051B7527003083
:1004340006117549007548007547007546007545F5
:1004440000C206C2A9C20102051BE541D3941440AF
:100454000302051820B30302051BE541C3940C50A5
:100464000302051875410075420202051BE541D3DC
:100474009414400302051830B30302051BE541D36D
:10048400940C500302051B20061A754203754100A3
:100494007549007548007547007546007545007537
:1004A400270080737542007543017544B08068E588
:1004B40041D3940A4002805C20B35CE541D39402AA
:1004C4004055E541940740020549AF49AE48AD4760
:1004D400AC4678011208D38F498E488D478C460567
:1004E40045E545C3942040037542047541008027C7
:1004F400E541D394104020E549B41816E548B418F2
:1005040011E546F4B5470B8547277543017544B09B
:0F051400D2068000754200758AAD758CFFD28CBF
:10052300D007D006D005D004D000D0D0D082D0835D
:05053300D0F0D0E03221
:10067800108090A0B0C0D00F808890988890988FF4
:10068800108090A0B0C0D01FA018108090A0B01704
:1006980000879099A0A8AFB2B5B8BBBEC0C2C4C706
:1006A800C9CBCDD0D2D3D5D6D8D9DBDCDEDFE1E2D9
:1006B800E3E4E5E6E8E9EAEBECEDEEEEEFF0F1F184
:1006C800F2F3F4F4F4F5F5F5F6F6F7F7F7F8F8F8C9
:1006D800F9F9FAFAFAFBFBFBFBFCFCFCFCFDFDFD5F
:1006E800FDFDFEFEFEFEFEFEFEFFFFFFFFFFFFFF1D
:1006F800FFFFFFFFFF00050A0F1E2D3C5A002127B0
:10070800260E112A2B222423252C16141E00030939
:100718000408080808050506060707070A07030866
:020728000505C5
:100C9C0075B280E4F5B1D2B7759201759102C2902C
:100CAC00D288C2A8D28AD2AA758901758AAD758CF0
:100CBC00FFC28CD2A974202589F589758B36758D68
:100CCC0036D28ED2ABE4F598F58775B802D2AF2246
:100E3B00E4F5C38FC475C78575C50175C65A75C6EC
:050E4B00A500AFC2226A
:100E6500E4F5C3F5C475C78575C50375C65A75C65A
:030E7500A50022B3
:100E50008DC2E4F5C38FC475C78575C50275C65AC2
:050E600075C6A500228B
:0D0EB800E4F5C7F5C5F5C675C380F5C42285
:100B5F00E4FF120E3B8F2B7F01120E3B8F267F027D
:100B6F00120E3B8F237F03120E3B8F2C7F04120E2E
:100B7F003B8F28E52BC394034003E4F52BE526D3E5
:100B8F009464400375261EE523D3940C400375230C
:100B9F0006E52CD394035007E52CC394015003753D
:0D0BAF002C01E528C394044003E4F528223E
:100DCF00120E65AD2BE4FF120E50AD260F120E5012
:100DDF00AD230F120E50AD2C0F120E50AD280F0277
:020DEF000E50A4
:100E7800EF24FF92B7752F0AE52F7003D38001C3C3
:030E880050F622FF
:0A072A00900002120872FF120D0B7E
:10073400E5267003FB8029E528700CE526900698D1
:100744009324E8FBE48019E528B4030AE52690061F
:10075400989324EC8008E5269006989324EEFBE415
:10076400FD7F82120D86AB2B7D017F82120D86E503
:1007740023C313FFE52875F008A42478F582E43434
:1007840006F583E5822FF582E43583F583E493FB54
:100794007D027F82120D86E52875F008A4247FF57A
:1007A40082E43406F583E493FB7D037F82120D8695
:1007B400E523540425E025E02494FB7D047F820294
:0207C4000D86A0
:070C0B00900002120872FFC5
:100C1200EF24F4601514601D14602724FE702E0565
:100C22002BE52BC3940340258006E52B7002FF229F
:100C3200E4F52B8018E52BB402037F0022752B020A
:100C4200800BE52BB401037F0022752B01D2057FB7
:020C520001227D
:100D0B00EF24F7601924F66007146012240C701995
:100D1B00C200E526C3946450100526D20522E526B1
:0A0D2B00D3940040041526D20522DF
:070D5F00900002120872FF70
:100D6600EF24F5600F047017E523C3940C501005AB
:100D760023D20522E523D3940040041523D205226D
:070BBC00900002120872FF15
:100BC300EF24FC601814602914601B14602E24F5B4
:100BD30070330528E528C39404402A8004E528607F
:100BE30026E4F528801FE5286402601B752802802F
:100BF30014E528640160107528018009E528640361
:080C03006005752803D20522EB
:100DAC00200307D2037521018010E521C39407505D
:100DBC000405218005C203E4F521E5219006FD938D
:020DCC00F53DF3
:010DCE002202
:1007C600900001120872700302085824FE603C145F
:1007D600606A24027075752900752A19E52A45296B
:1007E6007003D38001C350F4C290752900752A0A9C
:1007F600E52A45297003D38001C350F4900004E430
:100806001208B1E4F52D9000018044D290C2007523
:100816002900752A0AE52A45297003D38001C350A9
:10082600F490000474011208B1E4F52D900003124F
:10083600087212089F9000017401801390000174E1
:10084600021208B190000374018004900001E412C2
:0308560008B122C4
:10001E008B148A158916900001120872B40C0040D8
:10002E000302020F900039F82828730200660200BE
:10003E005D0200A00200BD0200D902015502017F3F
:10004E000201140201C50201AB0201E60200BD75F8
:10005E002975752A300201BF309119200016AB1494
:10006E00AA15A91690000174021208B1900003742B
:10007E0003020219E52A4529600302021CAB14AAE9
:10008E0015A91690000174021208B1900003E40243
:10009E000219AB14AA15A9169000031208721208C1
:1000AE009FAB14AA15A9169000017401020219C281
:1000BE0000C203E4F53DAB14AA15A9169000017415
:1000CE00021208B1900003E402021930000FC200C0
:1000DE00AB14AA15A9169000047401800DD200ABC2
:1000EE0014AA15A91690000474021208B1E4F52D95
:1000FE00AB14AA15A91690000174021208B1900053
:10010E00037401020219AB14AA15A916120C0BEFF7
:10011E006003120734AB14AA15A9169000047401DB
:10012E003000081208B1752D3280061208B1E4F5C0
:10013E002DAB14AA15A91690000174021208B190E5
:10014E0000037401020219AB14AA15A91612072A8C
:10015E00AB14AA15A91690000474031208B1752DDC
:10016E003290000174021208B19000037401020271
:10017E0019AB14AA15A916120D5F120734AB14AAE7
:10018E0015A91690000474041208B1752D32900052
:10019E000174021208B19000037401806E152CE5F3
:1001AE002CC394015003752C03D205AB14AA15A9C8
:1001BE0016900001E48054AB14AA15A916120BBCBC
:1001CE00120734AB14AA15A9169000017402120876
:1001DE00B190000374018033AB14AA15A9169000D8
:1001EE0004120872B40503120DACAB14AA15A916AD
:1001FE0090000474051208B1752D96900001E480EC
:0F020E000AAB14AA15A916900001E41208B12238
:10021D008B148A158916900001120872B40C0040D7
:10022D00030203CF900238F828287302026D0202F0
:10023D005C0202880202AA0202C5020330020351C7
:10024D000202E802038E0203740203A60202AAE46C
:10025D00FF120E78120734752900752AFA020382EF
:10026D00309107752900752AFA22E52A4529600380
:10027D000203DCAB14AA15A91680507F01120E786B
:10028D00120734AB14AA15A91690000312087212A6
:10029D00089FAB14AA15A9169000018039C200C29F
:1002AD0003E4F53DAB14AA15A916900001740212D2
:1002BD0008B190000302034DD200AB14AA15A91684
:1002CD0090000474021208B1E4F52D90000174023F
:1002DD001208B190000374010203D9AB14AA15A939
:1002ED0016120C0BEF601D7F01120E78120734AB46
:1002FD0014AA15A91690000174021208B1900003FA
:10030D007401800AAB14AA15A916900001E4120815
:10031D00B1AB14AA15A91690000474011208B1E42A
:10032D00F52D22AB14AA15A91612072AAB14AA157E
:10033D00A91690000474031208B1752D32900001B6
:10034D00E40203D9AB14AA15A916120D5F120734D6
:10035D00AB14AA15A91690000474041208B1752DDA
:10036D0032900001E48065152CE52CC394015003F7
:10037D00752C03D205AB14AA15A916900001E480C3
:10038D004BAB14AA15A916120BBC120734AB14AA49
:10039D0015A916900001E48033AB14AA15A9169087
:1003AD000004120872B40503120DACAB14AA15A902
:1003BD001690000474051208B1752D96900001E495
:1003CD00800AAB14AA15A916900001E41208B122F7
:100D35008B118A12891312085914600B24FE601056
:100D4500240370150207C6AB11AA12A91302001ECF
:0A0D5500AB11AA12A91312021D220D
:0D0EAA007F0FEF90070593B5270122DFF5BC
:010EB7002218
:100CDC00E4FF2092027F1020B2027F1120920520A7
:100CEC00B2027F12EF700AC2920020B2027F13D2BE
:0E0CFC0092EF700AC2B2002092027F14D2B2B0
:010D0A0022C6
:100DF100120EAA900002EF1208B1900002120872BE
:0D0E0100700A120CDC900002EF1208B12202
:0608E7008B118A12891337
:1008ED00C204900001120872706890000212087222
:1008FD00FFB52224EF24F824FC500724F8600304EC
:10090D007031E53C700E753C05EF90071593900026
:10091D00011208B1D204801BAB11AA12A9139000C9
:10092D0002120872F522900715939000011208B17A
:10093D00753C14AB11AA12A9139000011208727024
:10094D001130030EE53D700AC203900001740B12C5
:02095D0008B1DF
:01095F002275
:1009D300120C9CE4F508F509F50D750E00750F086A
:1009E30075261EF528752C01752303C203120B5FB0
:1009F300AB0DAA0EA90F1208E7AB0DAA0EA90F1291
:100A03000D35AB0DAA0EA90F1205383002E2C20252
:100A1300120A3DAB0DAA0EA90F120DF13005D1E557
:100A230010D3943240102004C7E4F510C205120D10
:0A0A3300CF120EB880BA051080B68D
:10085900BB010689828A83E0225002E722BBFE029D
:09086900E32289828A83E49322D0
:10087200BB010CE58229F582E5833AF583E022503B
:1008820006E92582F8E622BBFE06E92582F8E22285
:0D089200E58229F582E5833AF583E493229F
:10089F00BB010689828A83F0225002F722BBFE0138
:0208AF00F32232
:1008B100F8BB010DE58229F582E5833AF583E8F07D
:1008C100225006E92582C8F622BBFE05E92582C829
:0208D100F22211
:1008D300EF08800CA2E0CC13CCCD13CDCE13CE13F6
:0408E300D8F2FF2226
:00000001FF
