:03000000020EAA43
:0C0EAA00787FE4F6D8FD7581490209B894
:0A0EB600D2B400C2B500C2B400229D
:0A0EC000C2B500D2B400D2B5002282
:0E0E800000D2B400A2B5920700C2B400A207CF
:010E8E002241
:100DF300E4FEEF3392B5EF25E0FF120E800EBE083E
:070E0300F1D2B5120E80B31D
:010E0A0022C5
:100D6B00AE07AC03120EB6120DF35014AF05120DF5
:100D7B00F35012AF04120DF3500B120EC07F012271
:060D8B00120EC07F0022E1
:100AE70000003F0000215B004F0066006D007D00A5
:100AF70007007F006F0077007C00390079007100E4
:100B0700B602730001213E003012801A40214000D6
:100B1700008038000921B608849CA4C40012140080
:100B27000B131500101104001013120E00010F0F04
:0D0B3700FF0B23FF0B27FF0B2B80888A8DFF
:100E0B00E4FEC294EF139293EFC313FFD2940EBE82
:040E1B0008F0D29376
:010E1F0022B0
:100A2200E531C4540FF53AE5331313540C253AF566
:100A32003AE5355430253AF53AE53725E025E054D4
:100A4200C0253AF53AE539C4540FF53BC2957F0209
:100A5200120E0BD2950000C2957F40120E0BD2955A
:100A62000000C2957FC0120E0BE4FD74302DF8E633
:100A7200FF120E0B0DBD0CF3D2950000C295AF2EE6
:050A8200120E0BD295DD
:010A8700224C
:10094500BF641F900AEBE493F532740193F533907D
:100955000AE9E493FE7401938E34F5358E36F53746
:100965008040900AE7E493F532740193F533EF750F
:10097500F00A8425E024E9F582E4340AF583E4935A
:10098500F534740193F535EF75F00A84E5F025E04B
:1009950024E9F582E4340AF583E493F5367401938A
:1009A500F537E528900B1F93F538E523B406035377
:0309B500387F2266
:060C39008B148A158916D8
:100C3F00E4FFAB14AA15A9168F827583001207DA89
:100C4F0025E024E7F582E4340AF583E493FC74018C
:100C5F0093FDEF25E02430F8A60408A6050FBF0486
:100C6F00D1E528900B1F93F538E523B406035338CD
:010C7F007FF5
:010C80002251
:10053C008B118A128913E52C900B4093F52E9000A9
:10054C00041207DA14601F14605D146063147003E6
:10055C000205E91470030206402405600302067BC1
:10056C00752E80020A22E52B75F003A42437F58240
:10057C00E4340BF583E493FB740193FA740293F95E
:10058C00120C39E52D600302067B20000302067B6A
:10059C007BFF7A0B792F120C39AB11AA12A913908D
:1005AC00000474020206757BFF7A0B792F020C395A
:1005BC00900B0FE493F530740193F531AF261209CB
:1005CC0045E52D600302067BAB11AA12A91390001E
:1005DC0004300004740280027401020675900AFF54
:1005EC00E493F530740193F531E523C39406500E72
:1005FC00C374069523FF120945900B158015E5234E
:10060C0024FAFF120945E523B40605900AE7800396
:10061C00900B13E493F534740193F535E52D704F7D
:10062C00AB11AA12A91390000430000474028002CA
:10063C0074018035900B0BE493F530740193F53114
:10064C0020030B7BFF7A0B7933120C398005AF3DFD
:10065C00120945E52D7018AB11AA12A913900004CC
:10066C00300004740280027401120819E4F52D2282
:03000300020006F2
:0100060032C7
:03001300020E706A
:100E700020010CD201758AAD758CFFD28CD2A932BB
:03001B00020A884E
:040A8800C0E0C0D03A
:100A8C00053EE53EC39421404D753E00D202E52A59
:100A9C0045296008E52A152A70021529E52D600202
:100AAC00152DE53C6002153CE52F6002152FE53D48
:100ABC00D39400401B0540E5407002053FD394B829
:100ACC00E53F940B4010753F00754000153D8006C6
:060ADC00753F00754000AB
:050AE200D0D0D0E0328D
:03000B000203DD10
:1003DD00C0E0C0F0C083C082C0D075D000C000C0E6
:0703ED0004C005C006C007B3
:1003F400C28C0541E542146051146071147003020B
:1004040004B71470030204F82404600302051C20DA
:10041400B30975410075420102051FE54445436077
:100424000BE54415447002154302051F752700307F
:1004340006117549007548007547007546007545F5
:1004440000C206C2A9C20102051FE541D3942F4090
:100454000302051C20B30302051FE541C3941B508E
:100464000302051C75410075420202051FE541D3D4
:100474009414400302051C30B30302051FE541D365
:10048400940C401A75420375410075490075480083
:10049400754700754600754500752700807D7542D7
:1004A40000E541C3940740733006707543017544F9
:1004B400B08068E541D3940A4002805C20B35CE5D7
:1004C40041D394024055E541940740020549AF49A0
:1004D400AE48AD47AC46780112083B8F498E488D33
:1004E400478C460545E545C3942040037542047591
:1004F40041008027E541D394104020E549B4081613
:10050400E548B4F511E546F4B5470B85472775432F
:10051400017544B0D2068000754200758AAD758CB1
:03052400FFD28C77
:10052700D007D006D005D004D000D0D0D082D08359
:05053700D0F0D0E0321D
:10067C00108090A0B0C0D00F808890988890988FF0
:10068C00108090A0B0C0D01FA018108090A0B01700
:10069C0000879099A0A8AFB2B5B8BBBEC0C2C4C702
:1006AC00C9CBCDD0D2D3D5D6D8D9DBDCDEDFE1E2D5
:1006BC00E3E4E5E6E8E9EAEBECEDEEEEEFF0F1F180
:1006CC00F2F3F4F4F4F5F5F5F6F6F7F7F7F8F8F8C5
:1006DC00F9F9FAFAFAFBFBFBFBFCFCFCFCFDFDFD5B
:1006EC00FDFDFEFEFEFEFEFEFEFFFFFFFFFFFFFF19
:1006FC00FFFFFFFFFF00050A0F1E2D3C5A00010DE6
:10070C000A031F2F3D1114131215161E0E00030998
:10071C000408080808050506060707070A07030862
:02072C000505C1
:100C810075B280E4F5B1D2B7759201759102C29047
:100C9100D288C2A8D28AD2AA758901758AAD758C0B
:100CA100FFC28CD2A974202589F589758B36758D83
:100CB10036D28ED2ABE4F598F58775B802D2AF2261
:100E2000E4F5C38FC475C78575C50175C65A75C607
:050E3000A500AFC22285
:100E4A00E4F5C3F5C475C78575C50375C65A75C675
:030E5A00A50022CE
:100E35008DC2E4F5C38FC475C78575C50275C65ADD
:050E450075C6A50022A6
:0D0E9D00E4F5C7F5C5F5C675C380F5C422A0
:100B4400E4FF120E208F2B7F01120E208F267F02CE
:100B5400120E208F237F03120E208F2C7F04120E7F
:100B6400208F28E52BC394034003E4F52BE526D31B
:100B74009464400375261EE523D3940C4003752327
:100B840006E52CD394035007E52CC3940150037558
:0D0B94002C01E528C394044003E4F5282259
:100DB400120E4AAD2BE4FF120E35AD260F120E357E
:100DC400AD230F120E35AD2C0F120E35AD280F02C8
:020DD4000E35DA
:100E5D00EF24FF92B7752F0AE52F7003D38001C3DE
:030E6D0050F6221A
:0A084F009000021207DAFF120CF00D
:10085900E5267003FB800AE52690069C9324EEFBAF
:10086900E4FD7F82120D6BAB2B7D017F82120D6B34
:10087900E523C313FFE52875F008A4247CF582E479
:100889003406F583E5822FF582E43583F583E49315
:10089900FB7D027F82120D6BE52875F008A4248385
:1008A900F582E43406F583E493FB7D037F82120D20
:1008B9006BE523540425E025E02494FB7D047F8225
:0308C900020D6BB2
:070BF0009000021207DAFF7A
:100BF700EF24F4601514601D14602724FE702E0581
:100C07002BE52BC3940340258006E52B7002FF22BA
:100C1700E4F52B8018E52BB402037F0022752B0225
:100C2700800BE52BB401037F0022752B01D2057FD2
:020C3700012298
:100CF000EF24F7601924F66007146012240C7019B1
:100D0000C200E526C3946450100526D20522E526CC
:0A0D1000D3940040041526D20522FA
:070D44009000021207DAFF24
:100D4B00EF24F5600F047017E523C3940C501005C6
:100D5B0023D20522E523D3940040041523D2052288
:070BA1009000021207DAFFC9
:100BA800EF24FC601814602914601B14602E24F5CF
:100BB80070330528E528C39404402A8004E528609A
:100BC80026E4F528801FE5286402601B752802804A
:100BD80014E528640160107528018009E52864037C
:080BE8006005752803D2052207
:100D9100200307D2037521018010E521C394075078
:100DA1000405218005C203E4F521E52190070193A3
:020DB100F53D0E
:010DB300221D
:10072E009000011207DA70030207C024FE603C1429
:10073E00606A24027075752900752A19E52A452903
:10074E007003D38001C350F4C290752900752A0A34
:10075E00E52A45297003D38001C350F4900004E4C8
:10076E00120819E4F52D9000018044D290C2007554
:10077E002900752A0AE52A45297003D38001C35042
:10078E00F49000047401120819E4F52D9000031280
:10079E0007DA1208079000017401801390000174AB
:1007AE000212081990000374018004900001E412F3
:0307BE00081922F5
:10001E008B148A1589169000011207DAB40C004071
:10002E000302020F900039F82828730200660200BE
:10003E005D0200A00200BD0200D902015502017F3F
:10004E000201140201C50201AB0201E60200BD75F8
:10005E002975752A300201BF309119200016AB1494
:10006E00AA15A916900001740212081990000374C3
:10007E0003020219E52A4529600302021CAB14AAE9
:10008E0015A9169000017402120819900003E402DB
:10009E000219AB14AA15A9169000031207DA12085A
:1000AE0007AB14AA15A9169000017401020219C219
:1000BE0000C203E4F53DAB14AA15A9169000017415
:1000CE0002120819900003E402021930000FC20058
:1000DE00AB14AA15A9169000047401800DD200ABC2
:1000EE0014AA15A9169000047402120819E4F52D2D
:1000FE00AB14AA15A91690000174021208199000EB
:10010E00037401020219AB14AA15A916120BF0EF13
:10011E006003120859AB14AA15A9169000047401B5
:10012E00300008120819752D328006120819E4F5F0
:10013E002DAB14AA15A9169000017402120819907D
:10014E0000037401020219AB14AA15A91612084F66
:10015E00AB14AA15A9169000047403120819752D74
:10016E003290000174021208199000037401020209
:10017E0019AB14AA15A916120D44120859AB14AADC
:10018E0015A9169000047404120819752D329000EA
:10019E000174021208199000037401806E152CE58B
:1001AE002CC394015003752C03D205AB14AA15A9C8
:1001BE0016900001E48054AB14AA15A916120BA1D7
:1001CE00120859AB14AA15A9169000017402120850
:1001DE001990000374018033AB14AA15A916900070
:1001EE00041207DAB40503120D91AB14AA15A91661
:1001FE009000047405120819752D96900001E48084
:0F020E000AAB14AA15A916900001E412081922D0
:10021D008B148A1589169000011207DAB40C004070
:10022D00030203CF900238F828287302026D0202F0
:10023D005C0202880202AA0202C5020330020351C7
:10024D000202E802038E0203740203A60202AAE46C
:10025D00FF120E5D120859752900752AFA020382E4
:10026D00309107752900752AFA22E52A4529600380
:10027D000203DCAB14AA15A91680507F01120E5D86
:10028D00120859AB14AA15A9169000031207DA1219
:10029D000807AB14AA15A9169000018039C200C237
:1002AD0003E4F53DAB14AA15A916900001740212D2
:1002BD00081990000302034DD200AB14AA15A9161C
:1002CD009000047402120819E4F52D9000017402D7
:1002DD0012081990000374010203D9AB14AA15A9D1
:1002ED0016120BF0EF601D7F01120E5D120859AB57
:1002FD0014AA15A916900001740212081990000392
:10030D007401800AAB14AA15A916900001E4120815
:10031D0019AB14AA15A9169000047401120819E45A
:10032D00F52D22AB14AA15A91612084FAB14AA1558
:10033D00A9169000047403120819752D329000014E
:10034D00E40203D9AB14AA15A916120D44120859CB
:10035D00AB14AA15A9169000047404120819752D72
:10036D0032900001E48065152CE52CC394015003F7
:10037D00752C03D205AB14AA15A916900001E480C3
:10038D004BAB14AA15A916120BA1120859AB14AA3E
:10039D0015A916900001E48033AB14AA15A9169087
:1003AD0000041207DAB40503120D91AB14AA15A9B6
:1003BD00169000047405120819752D96900001E42D
:1003CD00800AAB14AA15A916900001E4120819228F
:100D1A008B118A1289131207C114600B24FE60100A
:100D2A002403701502072EAB11AA12A91302001E82
:0A0D3A00AB11AA12A91312021D2228
:0D0E8F007F0FEF90070993B5270122DFF5D3
:010E9C002233
:100CC100E4FF2092027F1020B2027F1120920520C2
:100CD100B2027F12EF700AC2920020B2027F13D2D9
:0E0CE10092EF700AC2B2002092027F14D2B2CB
:010CEF0022E2
:100DD600120E8F900002EF1208199000021207DA25
:0D0DE600700A120CC1900002EF12081922D1
:0608CC008B118A12891352
:1008D200C2049000011207DA70689000021207DA6F
:1008E200FFB52224EF24F824FC500724F860030407
:1008F2007031E53C700E753C05EF9007199390003E
:1009020001120819D204801BAB11AA12A91390007C
:10091200021207DAF52290071993900001120819C2
:10092200753C14AB11AA12A9139000011207DA70D8
:100932001130030EE53D700AC203900001740B12E0
:02094200081992
:010944002290
:1009B800120C81E4F508F509F50D750E00750F08A0
:1009C80075261EF528752C01752303C203120B44E6
:1009D800AB0DAA0EA90F1208CCAB0DAA0EA90F12C7
:1009E8000D1AAB0DAA0EA90F12053C3002E2C20285
:1009F800120A22AB0DAA0EA90F120DD63005D1E5A9
:100A080010D3943240102004C7E4F510C205120D2B
:0A0A1800B4120E9D80BA051080B6DE
:1007C100BB010689828A83E0225002E722BBFE0236
:0907D100E32289828A83E4932269
:1007DA00BB010CE58229F582E5833AF583E02250D4
:1007EA0006E92582F8E622BBFE06E92582F8E2221E
:0D07FA00E58229F582E5833AF583E4932238
:10080700BB010689828A83F0225002F722BBFE01D0
:02081700F322CA
:10081900F8BB010DE58229F582E5833AF583E8F015
:10082900225006E92582C8F622BBFE05E92582C8C1
:02083900F222A9
:10083B00EF08800CA2E0CC13CCCD13CDCE13CE138E
:04084B00D8F2FF22BE
:00000001FF
