:03000000020EC32A
:0C0EC300787FE4F6D8FD7581490209D162
:0A0ECF00D2B400C2B500C2B4002284
:0A0ED900C2B500D2B400D2B5002269
:0E0E990000D2B400A2B5920700C2B400A207B6
:010EA7002228
:100E0C00E4FEEF3392B5EF25E0FF120E990EBE080B
:070E1C00F1D2B5120E99B3EB
:010E230022AC
:100D8400AE07AC03120ECF120E0C5014AF05120EA8
:100D94000C5012AF04120E0C500B120ED97F01220C
:060DA400120ED97F0022AF
:100B000000003F0000215B004F0066006D007D008B
:100B100007007F006F0077007C00390079007100CA
:100B2000B602730001213E003012801A40214000BD
:100B3000008038000921B608849CA4C40012140067
:100B40000B131500101104001013120E00010F0FEB
:0D0B5000FF0B3CFF0B40FF0B4480888A8D9B
:100E2400E4FEC294EF139293EFC313FFD2940EBE69
:040E340008F0D2935D
:010E38002297
:100A3B00E531C4540FF53AE5331313540C253AF54D
:100A4B003AE5355430253AF53AE53725E025E054BB
:100A5B00C0253AF53AE539C4540FF53BC2957F02F0
:100A6B00120E24D2950000C2957F40120E24D2950F
:100A7B000000C2957FC0120E24E4FD74302DF8E601
:100A8B00FF120E240DBD0CF3D2950000C295AF2EB4
:050A9B00120E24D295AB
:010AA0002233
:10095E00BF641F900B04E493F532740193F533904A
:10096E000B02E493FE7401938E34F5358E36F53713
:10097E008040900B00E493F532740193F533EF75DC
:10098E00F00A8425E02402F582E4340BF583E49327
:10099E00F534740193F535EF75F00A84E5F025E032
:1009AE002402F582E4340BF583E493F53674019357
:1009BE00F537E528900B3893F538E523B406035345
:0309CE00387F224D
:060C52008B148A158916BF
:100C5800E4FFAB14AA15A9168F82758300120870D9
:100C680025E02400F582E4340BF583E493FC740159
:100C780093FDEF25E02430F8A60408A6050FBF046D
:100C8800D1E528900B3893F538E523B4060353389B
:010C98007FDC
:010C99002238
:10053C008B118A128913E52C900B5993F52E900090
:10054C000412087014601F14605D1460631470034F
:10055C000205E91470030206402405600302067BC1
:10056C00752E80020A3BE52B75F003A42450F5820E
:10057C00E4340BF583E493FB740193FA740293F95E
:10058C00120C52E52D600302067B20000302067B51
:10059C007BFF7A0B7948120C52AB11AA12A913905B
:1005AC00000474020206757BFF7A0B7948020C5228
:1005BC00900B28E493F530740193F531AF261209B2
:1005CC005EE52D600302067BAB11AA12A913900005
:1005DC0004300004740280027401020675900B183A
:1005EC00E493F530740193F531E523C39406500E72
:1005FC00C374069523FF12095E900B2E8015E5231C
:10060C0024FAFF12095EE523B40605900B00800363
:10061C00900B2CE493F534740193F535E52D704F64
:10062C00AB11AA12A91390000430000474028002CA
:10063C0074018035900B24E493F530740193F531FB
:10064C0020030B7BFF7A0B794C120C528005AF3DCB
:10065C0012095EE52D7018AB11AA12A913900004B3
:10066C003000047402800274011208AFE4F52D22EC
:03000300020006F2
:0100060032C7
:03001300020E8951
:100E890020010CD201758AAD758CFFD28CD2A932A2
:03001B00020AA135
:040AA100C0E0C0D021
:100AA500053EE53EC39421404D753E00D202E52A40
:100AB50045296008E52A152A70021529E52D6002E9
:100AC500152DE53C6002153CE52F6002152FE53D2F
:100AD500D39400401B0540E5407002053FD394B810
:100AE500E53F940B4010753F00754000153D8006AD
:060AF500753F0075400092
:050AFB00D0D0D0E03274
:03000B000203DD10
:1003DD00C0E0C0F0C083C082C0D075D000C000C0E6
:0703ED0004C005C006C007B3
:1003F400C28C0541E542146051146071147003020B
:1004040004B71470030204F82404600302051C20DA
:10041400B30975410075420102051FE54445436077
:100424000BE54415447002154302051F752700307F
:1004340006117549007548007547007546007545F5
:1004440000C206C2A9C20102051FE541D3942F4090
:100454000302051C20B30302051FE541C3941B508E
:100464000302051C75410075420202051FE541D3D4
:100474009414400302051C30B30302051FE541D365
:10048400940C401A75420375410075490075480083
:10049400754700754600754500752700807D7542D7
:1004A40000E541C3940740733006707543017544F9
:1004B400B08068E541D3940A4002805C20B35CE5D7
:1004C40041D394024055E541940740020549AF49A0
:1004D400AE48AD47AC4678011208D18F498E488D9D
:1004E400478C460545E545C3942040037542047591
:1004F40041008027E541D394104020E549B4081613
:10050400E548B4F511E546F4B5470B85472775432F
:10051400017544B0D2068000754200758AAD758CB1
:03052400FFD28C77
:10052700D007D006D005D004D000D0D0D082D08359
:05053700D0F0D0E0321D
:10067C00108090A0B0C0D00F808890988890988FF0
:10068C00108090A0B0C0D01FA018108090A0B01700
:10069C0000879099A0A8AFB2B5B8BBBEC0C2C4C702
:1006AC00C9CBCDD0D2D3D5D6D8D9DBDCDEDFE1E2D5
:1006BC00E3E4E5E6E8E9EAEBECEDEEEEEFF0F1F180
:1006CC00F2F3F4F4F4F5F5F5F6F6F7F7F7F8F8F8C5
:1006DC00F9F9FAFAFAFBFBFBFBFCFCFCFCFDFDFD5B
:1006EC00FDFDFEFEFEFEFEFEFEFFFFFFFFFFFFFF19
:1006FC00FFFFFFFFFF00050A0F1E2D3C5A00010DE6
:10070C000A031F2F3D1114131215161E0E00030998
:10071C000408080808050506060707070A07030862
:02072C000505C1
:100C9A0075B280E4F5B1D2B7759201759102C2902E
:100CAA00D288C2A8D28AD2AA758901758AAD758CF2
:100CBA00FFC28CD2A974202589F589758B36758D6A
:100CCA0036D28ED2ABE4F598F58775B802D2AF2248
:100E3900E4F5C38FC475C78575C50175C65A75C6EE
:050E4900A500AFC2226C
:100E6300E4F5C3F5C475C78575C50375C65A75C65C
:030E7300A50022B5
:100E4E008DC2E4F5C38FC475C78575C50275C65AC4
:050E5E0075C6A500228D
:0D0EB600E4F5C7F5C5F5C675C380F5C42287
:100B5D00E4FF120E398F2B7F01120E398F267F0283
:100B6D00120E398F237F03120E398F2C7F04120E34
:100B7D00398F28E52BC394034003E4F52BE526D3E9
:100B8D009464400375261EE523D3940C400375230E
:100B9D0006E52CD394035007E52CC394015003753F
:0D0BAD002C01E528C394044003E4F5282240
:100DCD00120E63AD2BE4FF120E4EAD260F120E4E1A
:100DDD00AD230F120E4EAD2C0F120E4EAD280F027D
:020DED000E4EA8
:100E7600EF24FF92B7752F0AE52F7003D38001C3C5
:030E860050F62201
:0A072E00900002120870FF120D097E
:10073800E526D3944840087517087518078005E41E
:10074800F517F518E5267003FB800DE52690069C45
:1007580093C3951724EEFBE4FD7F82120D84AB2B27
:100768007D017F82120D84E523C313FFE52875F010
:1007780008A4247CF582E43406F583E5822FF5820B
:10078800E43583F583E4932518FB7D027F82120DFF
:1007980084E52875F008A42483F582E43406F583FB
:1007A800E493FB7D037F82120D84E523540425E046
:0C07B80025E02494FB7D047F82020D8468
:070C0900900002120870FFC9
:100C1000EF24F4601514601D14602724FE702E0567
:100C20002BE52BC3940340258006E52B7002FF22A1
:100C3000E4F52B8018E52BB402037F0022752B020C
:100C4000800BE52BB401037F0022752B01D2057FB9
:020C500001227F
:100D0900EF24F7601924F66007146012240C701997
:100D1900C200E526C3946450100526D20522E526B3
:0A0D2900D3940040041526D20522E1
:070D5D00900002120870FF74
:100D6400EF24F5600F047017E523C3940C501005AD
:100D740023D20522E523D3940040041523D205226F
:070BBA00900002120870FF19
:100BC100EF24FC601814602914601B14602E24F5B6
:100BD10070330528E528C39404402A8004E5286081
:100BE10026E4F528801FE5286402601B7528028031
:100BF10014E528640160107528018009E528640363
:080C01006005752803D20522ED
:100DAA00200307D2037521018010E521C39407505F
:100DBA000405218005C203E4F521E521900701938A
:020DCA00F53DF5
:010DCC002204
:1007C400900001120870700302085624FE603C1465
:1007D400606A24027075752900752A19E52A45296D
:1007E4007003D38001C350F4C290752900752A0A9E
:1007F400E52A45297003D38001C350F4900004E432
:100804001208AFE4F52D9000018044D290C2007527
:100814002900752A0AE52A45297003D38001C350AB
:10082400F490000474011208AFE4F52D9000031253
:10083400087012089D9000017401801390000174E7
:10084400021208AF90000374018004900001E412C6
:0308540008AF22C8
:10001E008B148A158916900001120870B40C0040DA
:10002E000302020F900039F82828730200660200BE
:10003E005D0200A00200BD0200D902015502017F3F
:10004E000201140201C50201AB0201E60200BD75F8
:10005E002975752A300201BF309119200016AB1494
:10006E00AA15A91690000174021208AF900003742D
:10007E0003020219E52A4529600302021CAB14AAE9
:10008E0015A91690000174021208AF900003E40245
:10009E000219AB14AA15A9169000031208701208C3
:1000AE009DAB14AA15A9169000017401020219C283
:1000BE0000C203E4F53DAB14AA15A9169000017415
:1000CE00021208AF900003E402021930000FC200C2
:1000DE00AB14AA15A9169000047401800DD200ABC2
:1000EE0014AA15A91690000474021208AFE4F52D97
:1000FE00AB14AA15A91690000174021208AF900055
:10010E00037401020219AB14AA15A916120C09EFF9
:10011E006003120738AB14AA15A9169000047401D7
:10012E003000081208AF752D3280061208AFE4F5C4
:10013E002DAB14AA15A91690000174021208AF90E7
:10014E0000037401020219AB14AA15A91612072E88
:10015E00AB14AA15A91690000474031208AF752DDE
:10016E003290000174021208AF9000037401020273
:10017E0019AB14AA15A916120D5D120738AB14AAE5
:10018E0015A91690000474041208AF752D32900054
:10019E000174021208AF9000037401806E152CE5F5
:1001AE002CC394015003752C03D205AB14AA15A9C8
:1001BE0016900001E48054AB14AA15A916120BBABE
:1001CE00120738AB14AA15A9169000017402120872
:1001DE00AF90000374018033AB14AA15A9169000DA
:1001EE0004120870B40503120DAAAB14AA15A916B1
:1001FE0090000474051208AF752D96900001E480EE
:0F020E000AAB14AA15A916900001E41208AF223A
:10021D008B148A158916900001120870B40C0040D9
:10022D00030203CF900238F828287302026D0202F0
:10023D005C0202880202AA0202C5020330020351C7
:10024D000202E802038E0203740203A60202AAE46C
:10025D00FF120E76120738752900752AFA020382ED
:10026D00309107752900752AFA22E52A4529600380
:10027D000203DCAB14AA15A91680507F01120E766D
:10028D00120738AB14AA15A91690000312087012A4
:10029D00089DAB14AA15A9169000018039C200C2A1
:1002AD0003E4F53DAB14AA15A916900001740212D2
:1002BD0008AF90000302034DD200AB14AA15A91686
:1002CD0090000474021208AFE4F52D900001740241
:1002DD001208AF90000374010203D9AB14AA15A93B
:1002ED0016120C09EF601D7F01120E76120738AB46
:1002FD0014AA15A91690000174021208AF900003FC
:10030D007401800AAB14AA15A916900001E4120815
:10031D00AFAB14AA15A91690000474011208AFE42E
:10032D00F52D22AB14AA15A91612072EAB14AA157A
:10033D00A91690000474031208AF752D32900001B8
:10034D00E40203D9AB14AA15A916120D5D120738D4
:10035D00AB14AA15A91690000474041208AF752DDC
:10036D0032900001E48065152CE52CC394015003F7
:10037D00752C03D205AB14AA15A916900001E480C3
:10038D004BAB14AA15A916120BBA120738AB14AA47
:10039D0015A916900001E48033AB14AA15A9169087
:1003AD000004120870B40503120DAAAB14AA15A906
:1003BD001690000474051208AF752D96900001E497
:1003CD00800AAB14AA15A916900001E41208AF22F9
:100D33008B118A12891312085714600B24FE60105A
:100D4300240370150207C4AB11AA12A91302001ED3
:0A0D5300AB11AA12A91312021D220F
:0D0EA8007F0FEF90070993B5270122DFF5BA
:010EB500221A
:100CDA00E4FF2092027F1020B2027F1120920520A9
:100CEA00B2027F12EF700AC2920020B2027F13D2C0
:0E0CFA0092EF700AC2B2002092027F14D2B2B2
:010D080022C8
:100DEF00120EA8900002EF1208AF900002120870C6
:0D0DFF00700A120CDA900002EF1208AF2209
:0608E5008B118A12891339
:1008EB00C204900001120870706890000212087028
:1008FB00FFB52224EF24F824FC500724F8600304EE
:10090B007031E53C700E753C05EF90071993900024
:10091B00011208AFD204801BAB11AA12A9139000CD
:10092B0002120870F522900719939000011208AF7C
:10093B00753C14AB11AA12A9139000011208707028
:10094B001130030EE53D700AC203900001740B12C7
:02095B0008AFE3
:01095D002277
:1009D100120C9AE4F508F509F50D750E00750F086E
:1009E10075261EF528752C01752303C203120B5DB4
:1009F100AB0DAA0EA90F1208E5AB0DAA0EA90F1295
:100A01000D33AB0DAA0EA90F12053C3002E2C20252
:100A1100120A3BAB0DAA0EA90F120DEF3005D1E55D
:100A210010D3943240102004C7E4F510C205120D12
:0A0A3100CD120EB680BA051080B693
:10085700BB010689828A83E0225002E722BBFE029F
:09086700E32289828A83E49322D2
:10087000BB010CE58229F582E5833AF583E022503D
:1008800006E92582F8E622BBFE06E92582F8E22287
:0D089000E58229F582E5833AF583E49322A1
:10089D00BB010689828A83F0225002F722BBFE013A
:0208AD00F32234
:1008AF00F8BB010DE58229F582E5833AF583E8F07F
:1008BF00225006E92582C8F622BBFE05E92582C82B
:0208CF00F22213
:1008D100EF08800CA2E0CC13CCCD13CDCE13CE13F8
:0408E100D8F2FF2228
:00000001FF
