:03000000020F8E5E
:0C0F8E00787FE4F6D8FD75814A020A5F06
:0A0F9A00D2B400C2B500C2B40022B8
:0A0FA400C2B500D2B400D2B500229D
:0E0F630000D2B400A2B5920700C2B400A207EB
:010F7100225D
:100ED500E4FEEF3392B5EF25E0FF120F630EBE0877
:070EE500F1D2B5120F63B357
:010EEC0022E3
:100E4D00AE07AC03120F9A120ED55014AF05120E49
:100E5D00D55012AF04120ED5500B120FA47F0122E4
:060E6D00120FA47F002219
:100B980000003F0000215B004F0066006D007D00F3
:100BA80007007F006F0077007C0039007900710032
:100BB800B602730001213E003012801A4021400025
:100BC800008038000921B608002B001020400012D0
:100BD80014000B131500101104001013120E00015D
:100BE8000F0F00011C00FF0BD6FF0BDAFF0BDE8096
:030BF800888A8D5B
:100EED00E4FEC294EF139293EFC313FFD2940EBEA0
:040EFD0008F0D29394
:010F010022CD
:100B3200E532C4540FF53BE5341313540C253BF551
:100B42003BE5365430253BF53BE53825E025E054BE
:100B5200C0253BF53BE53AC4540FF53CC2957F02F4
:100B6200120EEDD2950000C2957F40120EEDD29585
:100B72000000C2957FC0120EEDE4FD74312DF8E63F
:100B8200FF120EED0DBD0CF3D2950000C295AF2FF2
:050B9200120EEDD295EA
:010B9700223B
:1009EB00BF641F900B9CE493F533740193F5349023
:1009FB000B9AE493FE7401938E35F5368E37F538EA
:100A0B008040900B98E493F533740193F534EF75B4
:100A1B00F00A8425E0249AF582E4340BF583E49301
:100A2B00F535740193F536EF75F00A84E5F025E0A2
:100A3B00249AF582E4340BF583E493F53774019330
:100A4B00F538E529900BD293F539E523640660035D
:040A5B004339802279
:060CA7008B148A1589166A
:100CAD00E4FFAB14AA15A9168F8275830012087D77
:100CBD0025E02498F582E4340BF583E493FC74016C
:100CCD0093FDEF25E02431F8A60408A6050FBF0417
:100CDD00D1E529900BD293F539E5236406600343E2
:020CED0039804C
:010CEF0022E2
:1003E3008B118A128913E52D900BF793F52F90004B
:1003F3000412087DB407004003020542900406F886
:1004030028287302041B02042102046202046B0203
:1004130004980204EF020526752F80020B32E52CA7
:1004230075F003A424EEF582E4340BF583E493FB27
:10043300740193FA740293F9120CA7E52E60030278
:1004430005422000030205427BFF7A0B79E2120C7E
:10045300A7AB11AA12A913900004740202053C7BF6
:10046300FF7A0B79E2020CA7900BC0E493F5317489
:100473000193F532AF271209EBE52E600302054223
:10048300AB11AA12A9139000043000047402800275
:10049300740102053C900BB0E493F531740193F5BC
:1004A30032E523C39406500EC374069523FF120945
:1004B300EB900BC68015E52324FAFF1209EBE52325
:1004C300B40605900B988003900BC4E493F5357440
:1004D3000193F536E52E7067AB11AA12A9139000AC
:1004E30004300004740280027401804D900BBCE45C
:1004F30093F531740193F53220030B7BFF7A0B796B
:10050300E6120CA78005AF3E1209EBE52E7030AB67
:1005130011AA12A91390000430000474028002741B
:100523000180167BFF7A0B79EA120CA7E52E700F78
:10053300AB11AA12A9139000041208BCE4F52E22F1
:03000300020006F2
:0100060032C7
:03001300020F5386
:100F530020010CD201758AAD758CFFD28CD2A932D7
:100DFE00E5247818667004E5247012E5247817B49B
:100E0E0001047664800276327818A62422781716AA
:070E1E00E67004F52408F65C
:010E250022AA
:03001B00020AC90D
:090AC900C0E0C0D075D000C000EF
:100AD200053FE53FC394214050753F00D202E52B0C
:100AE200452A6008E52B152B7002152AE52E6002B7
:100AF200152EE53D6002153DE53060021530120D00
:100B0200FEE53ED39400401B0541E54170020540DD
:100B1200D394B8E540940B40107540007541001520
:090B22003E80067540007541009B
:070B2B00D000D0D0D0E03271
:03000B00020543A8
:10054300C0E0C0F0C083C082C0D075D000C000C07E
:0705530004C005C006C0074B
:10055A00C28C0542E54314605114607114700302A1
:10056A00061D14700302065E24046003020682203C
:10057A00B309754200754301020685E545454460A5
:10058A000BE54515457002154402068575280030AD
:10059A000611754A00754900754800754700754689
:1005AA0000C206C2A9C201020685E542D3942F40C1
:1005BA000302068220B303020685E542C3941B5058
:1005CA0003020682754200754302020685E542D39C
:1005DA009414400302068230B303020685E542D32F
:1005EA00940C401A754303754200754A0075490018
:1005FA00754800754700754600752800807D75436B
:10060A0000E542C39407407330067075440175458E
:10061A00B08068E542D3940A4002805C20B35CE56E
:10062A0042D394024055E54294074002054AAF4A34
:10063A00AE49AD48AC4778011208DE8F4A8E498D23
:10064A00488C470546E546C3942040037543047524
:10065A0042008027E542D394104020E54AB40816A8
:10066A00E549B4F511E547F4B5480B8548287544C2
:10067A00017545B0D2068000754300758AAD758C48
:03068A00FFD28C10
:10068D00D007D006D005D004D000D0D0D082D083F2
:05069D00D0F0D0E032B6
:100796000880889098A0A8B0B8C0C8D0D804B690F1
:1007A60098A0A8B0B8C0C8D0D8E0E8F004BA0880CD
:1007B600889098A0A8B0B8C0C8D0D804B838302857
:1007C6002018100880889098A0A834B600879099C1
:1007D600A0A8AFB2B5B8BBBEC0C2C4C7C9CBCDD046
:1007E600D2D3D5D6D8D9DBDCDEDFE1E2E3E4E5E639
:1007F600E8E9EAEBECEDEEEEEFF0F1F1F2F3F4F40A
:10080600F4F5F5F5F6F6F7F7F7F8F8F8F9F9FAFA70
:10081600FAFBFBFBFBFCFCFCFCFDFDFDFDFDFEFE0F
:10082600FEFEFEFEFEFFFFFFFFFFFFFFFFFFFFFFD7
:10083600FF00050A0F1E2D3C5A00010D0A031F2F4B
:100846003D1114131215161E0E000309040808089C
:0E08560008050506060707070A07030805053B
:100D3900E4F5B175B282D2B7759102759241C2904C
:100D4900C296D288C2A8D28AD2AA758901758AADFB
:100D5900758CFFC28CD2A974202589F589758B36CB
:100D6900758D36D28ED2ABE4F598F58775B802D277
:020D7900AF22A7
:100F020075E32E8FE475E78375E50175E64675E6B0
:050F1200B900AFE2226E
:100F2C0075E32EE4F5E475E78375E50375E6467520
:040F3C00E6B90022F0
:100F17008DE275E32E8FE475E78375E50275E64686
:050F270075E6B900228F
:0E0F7200E4F5E7F5E5F5E675E3FF75E4FF222B
:100BFB00E4FF120F028F2C7F01120F028F277F024F
:100C0B00120F028F237F03120F028F2D7F04120FFF
:100C1B00028F29E52CC394034003E4F52CE527D37D
:100C2B009464400375271EE523D3940C400375236E
:100C3B0006E52DD394035007E52DC394015003759E
:0D0C4B002D01E529C394044003E4F529229E
:100E9600120F2CAD2CE4FF120F17AD270F120F17F0
:100EA600AD230F120F17AD2D0F120F17AD290F021D
:020EB6000F1714
:100F4000EF24FF92B775300AE5307003D38001C3F8
:030F500050F62236
:0A08F20090000212087DFF120DAA0B
:1008FC00E5277003FB800AE5279007D29324E4FBDD
:10090C00E4FD7F82120E4DAB2C7D017F82120E4DC9
:10091C00E52975F00FA42496F582E43407F583E5F8
:10092C00822523F582E43583F583E493FB7D027FF6
:10093C0082120E4DE52975F00FA424A3F582E43440
:10094C0007F583E493FB7D037F82120E4DE5297539
:10095C00F00FA424A4F582E43407F583E493FB7D23
:06096C00047F82020E4D23
:070CF00090000212087DFFD5
:100CF700EF24F4601514601D14602724FE702E0580
:100D07002CE52CC3940340258006E52C7002FF22B6
:100D1700E4F52C8018E52CB402037F0022752C0221
:100D2700800BE52CB401037F0022752C01D2057FCF
:020D3700012297
:100DAA00EF24F7601924F66007146012240C7019F6
:100DBA00C200E527C3946450100527D20522E5270F
:0A0DCA00D3940040041527D205223F
:070E260090000212087DFF9D
:100E2D00EF24F5600F047017E523C3940C501005E3
:100E3D0023D20522E523D3940040041523D20522A5
:070C580090000212087DFF6D
:100C5F00EF24FC601814602914601B14602E24F517
:100C6F0070330529E529C39404402A8004E52960DF
:100C7F0026E4F529801FE5296402601B752902808F
:100C8F0014E529640160107529018009E5296403C1
:080C9F006005752903D205224E
:100E7300200307D2037521018010E521C394075095
:100E83000405218005C203E4F521E5219008379389
:020E9300F53E2A
:010E9500223A
:1006A20090000112087D700302079524FE604D142C
:1006B200607B14700302076224FC700302073E246D
:1006C20007600302078E752A00752B19E52B452A50
:1006D2007003D38001C350F4C290752A00752B0AAF
:1006E200E52B452A7003D38001C350F4900004E443
:1006F2001208BCE4F52E900001020792D290C200CB
:10070200752A00752B0AE52B452A7003D38001C395
:1007120050F490000474011208BCE4F52E9000031A
:1007220012087D1208AA90000174018063900001F2
:1007320074021208BC9000037401805490000212EB
:10074200087DFFB40408E524B40103752402EFB464
:100752000708E524B40203752403900001E4803005
:10076200E524B40321E4F524F52C75271E75230630
:10077200752D01F529120E96120F7290000474065F
:100782001208BC752E96900001E48004900001E4EA
:040792001208BC226B
:10001E008B148A15891690000112087DB40C0040CD
:10002E0003020212900039F82828730200660200BB
:10003E005D0200A00200BD0200DC02015802018236
:10004E000201170201C80201AE0201E90200C075E9
:10005E002A75752B300201C2309119200016AB148F
:10006E00AA15A91690000174021208BC9000037420
:10007E000302021CE52B452A600302021FAB14AAE1
:10008E0015A91690000174021208BC900003E40238
:10009E00021CAB14AA15A91690000312087D1208B3
:1000AE00AAAB14AA15A916900001740102021C75C0
:1000BE002401C200C203E4F53EAB14AA15A91690A2
:1000CE00000174021208BC900003E402021C30000E
:1000DE000FC200AB14AA15A9169000047401800D6E
:1000EE00D200AB14AA15A91690000474021208BC13
:1000FE00E4F52EAB14AA15A916900001740212088D
:10010E00BC900003740102021CAB14AA15A91612AE
:10011E000CF0EF60031208FCAB14AA15A9169000A0
:10012E000474013000081208BC752E3280061208C5
:10013E00BCE4F52EAB14AA15A91690000174021298
:10014E0008BC900003740102021CAB14AA15A91678
:10015E001208F2AB14AA15A9169000047403120823
:10016E00BC752E3290000174021208BC900003740C
:10017E000102021CAB14AA15A916120E261208FCB7
:10018E00AB14AA15A91690000474041208BC752E9F
:10019E003290000174021208BC9000037401806E4C
:1001AE00152DE52DC394015003752D03D205AB1407
:1001BE00AA15A916900001E48054AB14AA15A9162D
:1001CE00120C581208FCAB14AA15A9169000017453
:1001DE00021208BC90000374018033AB14AA15A957
:1001EE001690000412087DB40503120E73AB14AA08
:1001FE0015A91690000474051208BC752E96900071
:10020E0001E4800AAB14AA15A916900001E41208A5
:02021E00BC2200
:100220008B148A15891690000112087DB40C0040C9
:10023000030203D590023BF82828730202700202E1
:100240005F02028B0202AD0202CB020336020357A9
:100250000202EE02039402037A0203AC0202B0E44B
:10026000FF120F401208FC752A00752BFA02038852
:10027000309107752A00752BFA22E52B452A600379
:100280000203E2AB14AA15A91680537F01120F4096
:100290001208FCAB14AA15A91690000312087D12CF
:1002A00008AAAB14AA15A916900001803C75240178
:1002B000C200C203E4F53EAB14AA15A916900001D2
:1002C00074021208BC900003020353D200AB14AABC
:1002D00015A91690000474021208BCE4F52E9000D3
:1002E0000174021208BC90000374010203DFAB1416
:1002F000AA15A916120CF0EF601D7F01120F401213
:1003000008FCAB14AA15A91690000174021208BCCF
:100310009000037401800AAB14AA15A9169000017D
:10032000E41208BCAB14AA15A916900004740112BB
:1003300008BCE4F52E22AB14AA15A9161208F2ABDC
:1003400014AA15A91690000474031208BC752E3265
:10035000900001E40203DFAB14AA15A916120E26C1
:100360001208FCAB14AA15A9169000047404120814
:10037000BC752E32900001E48065152DE52DC394E7
:10038000015003752D03D205AB14AA15A9169000D0
:1003900001E4804BAB14AA15A916120C581208FCE4
:1003A000AB14AA15A916900001E48033AB14AA156A
:1003B000A91690000412087DB40503120E73AB1445
:1003C000AA15A91690000474051208BC752E969003
:1003D0000001E4800AAB14AA15A916900001E412EA
:0303E00008BC2234
:100DD4008B118A12891312086414600B24FE6010AC
:100DE400240370150206A2AB11AA12A91302001E55
:0A0DF400AB11AA12A913120220226B
:0D0F80007F0FEF90083F93B5280122DFF5A9
:010F8D002241
:100D7B00E4FF2092027F1020B2027F112092052007
:100D8B00B2027F12EF700AC2920020B2027F13D21E
:0E0D9B0092EF700AC2B2002092027F14D2B210
:010DA9002227
:100EB800120F80900002EF1208BC90000212087D09
:0D0EC800700A120D7B900002EF1208BC2290
:060972008B118A128913AB
:10097800C20490000112087D706890000212087D80
:10098800FFB52224EF24F824FC500724F860030460
:100998007031E53D700E753D05EF90084F9390005E
:1009A800011208BCD204801BAB11AA12A913900033
:1009B8000212087DF52290084F939000011208BC9E
:1009C800753D14AB11AA12A91390000112087D708D
:1009D8001130030EE53E700AC203900001740B1239
:0209E80008BC49
:0109EA0022EA
:100A5F00120D39E4F508F509F50D750E00750F083F
:100A6F0075271EF529752D01752303C203120BFB84
:100A7F00AB0DAA0EA90F120972AB0DAA0EA90F1278
:100A8F000DD4AB0DAA0EA90F1203E33002E2C2027E
:100A9F00120B32AB0DAA0EA90F120EB83005D1E50D
:100AAF0010D3943240102004C7E4F510C205120E83
:0A0ABF0096120F7280BA051080B67F
:10086400BB010689828A83E0225002E722BBFE0292
:09087400E32289828A83E49322C5
:10087D00BB010CE58229F582E5833AF583E0225030
:10088D0006E92582F8E622BBFE06E92582F8E2227A
:0D089D00E58229F582E5833AF583E4932294
:1008AA00BB010689828A83F0225002F722BBFE012D
:0208BA00F32227
:1008BC00F8BB010DE58229F582E5833AF583E8F072
:1008CC00225006E92582C8F622BBFE05E92582C81E
:0208DC00F22206
:1008DE00EF08800CA2E0CC13CCCD13CDCE13CE13EB
:0408EE00D8F2FF221B
:00000001FF
